S01100006372746C5F676967612E7372656367
S1130000D8C3000006C4000004C4000002C40000F9
S113001000C40000FEC30000FCC30000FAC30000DB
S1130020F8C30000F6C30000F4C30000F2C30000EC
S1130030F0C30000EEC30000ECC30000EAC30000FC
S1130040E8C30000E6C30000E4C30000E2C300000C
S11300500C946A0CDEC30000DCC30000EBC7000094
S1130060D8C30000F5C6000029C70000D2C30000B1
S1130070D0C30000CEC30000CCC30000CAC300003C
S1130080C8C30000C6C30000C4C300000C94FD0C28
S1130090C0C30000BEC30000BCC30000BAC300005C
S11300A0B8C30000B6C30000B4C30000B2C300006C
S11300B0B0C30000AEC30000ACC30000AAC300007C
S11300C0A8C30000A6C30000A4C30000A2C300008C
S11300D0A0C300009EC300009CC300009AC300009C
S11300E098C30000E008E308D208D608DC081A091F
S11300F0E708EB08F108F508F908FF080309070900
S11301001A090D091109150900000A0B02090C0D41
S11301100E080703040100000000000000000000B6
S113012000000000000000000000000000000000CB
S11301300000000012111000000000000000000088
S113014000000000000000000000000000000102A8
S113015010202008081020401020408002010201D5
S1130160080402010102040810204080804020108D
S113017008040201800402018040201008040201E6
S1130180080402010102040810204080010204084E
S11301901020408005050505070508080808020227
S11301A002020A0A0808040404040101010101010D
S11301B001010303030303030303040707070C0CF0
S11301C00C0C0C0C0C0C02020202060606060606B7
S11301D006060B0B0B0B0B0B0B0B00002200250070
S11301E028002B002E00310034000201000005011C
S11301F008010B0100002100240027002A002D0023
S11302003000330001010000040107010A01E80382
S1130210E803BADB7C92DD6DE4573E49C73EEF3616
S1130220D430F22BF3279F24CE21641F4C1DBADB5C
S1130230CDCE50C308B9C8AF69A7CD9FDA987C92D8
S1130240A08C378735828F7D3A7930756871DD6D82
S1130250896A67677264A861045F845C255AE457FD
S1130260BF55B553C251E74F204E6D4CCD4A3E4960
S1130270BF475046EF449C4355421B41EC3FC73EA9
S1130280AD3D9D3C963B983AA239B438CE37EF3613
S1130290163644357934B333F33239328431D430B9
S11302A02930822FE02E422EA82D122D802CF22BE5
S11302B0672BE02A5B2ADA295C29E1286928F327DD
S11302C080271027A2263726CD25662502259F24C0
S11302D03E24E02383232823CF2278222222CE2106
S11302E07B212B21DB208D204120F61FAC1F641FB6
S11302F01D1FD71E921E4F1E0C1ECB1D8B1D4C1D89
S11303000E1DD11C951C5A1C201CE71BAF1B771B10
S1130310411B0B1BD61AA21A6F1A3C1A0B1ADA19B4
S1130320A9197A194B191D19EF18C21896186A18C9
S11303303F181418EA17C117981770174817211790
S1130340FA16D416AE168916641640161C16F9153C
S1130350D615B415911570154F152E150D15ED14F0
S1130360CD14AE148F147114521434141714FA13D8
S1130370DD13C013A41388136C13511336131B130A
S11303800113E712CD12B3129A128112681250129D
S113039037121F120712F011D911C111AB119411A8
S11303A07E11671151113C1126111111FC10E71037
S11303B0D210BE10A910951081106E105A1047105B
S11303C0331020100E10FB0FE80FD60FC40FB20F1E
S11303D0A00F8E0F7D0F6B0F5A0F490F380F270F89
S11303E0170F060FF60EE60ED50EC60EB60EA60EA7
S11303F0960E870E780E690E590E4B0E3C0E2D0E7E
S11304001E0E100E020EF30DE50DD70DC90DBC0D19
S1130410AE0DA00D930D860D780D6B0D5E0D510D77
S1130420440D370D2B0D1E0D120D050DF90CED0CA1
S1130430E10CD50CC90CBD0CB10CA50C9A0C8E0C9E
S1130440830C770C6C0C610C560C4B0C400C350C6B
S11304502A0C1F0C150C0A0C000CF50BEB0BE10B12
S1130460D60BCC0BC20BB80BAE0BA40B9A0B910B97
S1130470870B7D0B740B6A0B610B570B4E0B450BF3
S11304803B0B320B290B200B170B0E0B050BFD0A34
S1130490F40AEB0AE20ADA0AD10AC90AC00AB80A5B
S11304A0B00AA70A9F0A970A8F0A870A7F0A770A5F
S11304B06F0A670A5F0A570A4F0A480A400A380A4D
S11304C0310A290A220A1A0A130A0B0A040AFD0924
S11304D0F609EE09E709E009D909D209CB09C409EB
S11304E0BD09B609AF09A909A2099B0994098E0996
S11304F0870980097A0973096D09660960095A092F
S113050053094D09470940093A0934092E092809B4
S113051022091C09160910090A090409FE08F80829
S1130520F208EC08E608E108DB08D508D008CA0898
S1130530C408BF08B908B408AE08A908A3089E08EF
S1130540980893088E08880883087E087908730839
S11305506E08690864085F085A08550850084B0873
S1130560460841083C08370832082D0828082308A3
S11305701F081A08150810080B0807080208FD07C9
S1130580F907F407F007EB07E607E207DD07D907E9
S1130590D407D007CC07C707C307BE07BA07B607F7
S11305A0B107AD07A907A507A0079C0798079407FB
S11305B08F078B07870783077F077B0777077307F7
S11305C06F076B07670763075F075B0757075307E7
S11305D04F074B074707440740073C0738073407D2
S11305E030072D072907250722071E071A071707B3
S11305F013070F070C07080704070107FD06FA068F
S1130600F606F306EF06EC06E806E506E106DE0666
S1130610DA06D706D406D006CD06C906C606C30632
S1130620BF06BC06B906B606B206AF06AC06A906F6
S1130630A506A2069F069C069906950692068F06B5
S11306408C0689068606830680067D06790676066C
S1130650730670066D066A066706640661065E0622
S11306605B0659065606530650064D064A064706CB
S1130670440641063F063C06390636063306310673
S11306802E062B0628062506230620061D061B0615
S113069018061506120610060D060A0608060506B3
S11306A002060006FD05FB05F805F505F305F00552
S11306B0EE05EB05E905E605E405E105DF05DC05E6
S11306C0DA05D705D505D205D005CD05CB05C80576
S11306D0C605C305C105BF05BC05BA05B705B50503
S11306E0B305B005AE05AC05A905A705A505A2058A
S11306F0A0059E059B05990597059505920590050E
S11307008E058C05890587058505830580057E058D
S11307107C057A0578057605730571056F056D0509
S11307206B05690566056405620560055E055C0583
S11307305A05580556055405520550054D054B05F7
S1130740490547054505430541053F053D053B056D
S1130750390537053505330531052F052D052C05DC
S11307602A05280526052405220520051E051C0545
S11307701A05180516051505130511050F050D05B0
S11307800B05090508050605040502050005FE0418
S1130790FD04FB04F904F704F504F404F204F00482
S11307A0EE04ED04EB04E904E704E504E404E204E4
S11307B0900711241FBECFEFD1E2DEBFCDBF00E012
S11307C00CBF12E0A0E0B2E0E0E0FEE100E00BBF0D
S11307D002C007900D92AC3DB107D9F725E0ACED0E
S11307E0B2E001C01D92AD34B207E1F713E0C9EDE8
S11307F0D3E000E006C021970109802FFE010E948A
S1130800F60EC83DD10780E00807A9F7B7D30C94CA
S1130810FE0EF6CB26E040E051EE60E070E082EAA6
S113082094E0B3D272D561E08DE005D561E089E151
S113083002D560E08DE03BD560E089E138D5C3D7CF
S11308400E94400C84E0B5D560E087E030D561E0DB
S11308508CE02DD561E088E02AD561E086E027D5DB
S113086084E07DD560E088E122D561E085E01FD594
S113087061E08AE11CD561E086E119D581E08093CD
S1130880720410929E0410929F041092A00410927D
S1130890A10410929A0461E08DE009C5CF92DF9221
S11308A0EF92FF92CF93DF9382EA94E06DD1892B8C
S11308B009F0C4D680916E04882309F4E1C08091C4
S11308C08404882309F4DCC0EBD510926E041092E2
S11308D0840460E072E082EA94E09CD36091760440
S11308E082EA94E0EBD16091770482EA94E0E6D165
S11308F08EE694E00FD6D82F84E894E00BD6C82F68
S113090081E080939D0460E085E0D1D460E08CE0D8
S1130910CED46091720486E1CAD46091880486E0E2
S1130920C6D480919A04D13009F080C0C13009F056
S11309307DC0813009F07AC06AE072E082EA94E016
S113094069D3809176049091770497FF03C09195C1
S11309508195910902976CF080E090E0A0E0B0E40A
S11309608093800490938104A0938204B0938304C1
S113097008C0109280041092810410928204109294
S11309808304C0908004D0908104E0908204F090AD
S1130990830420E030E0A901C701B601CDD01816C8
S11309A01CF4C701B60103C0C701B60190586FD04B
S11309B0CB01D6D61BD780918C0490918D0497FFE0
S11309C003C091958195910902976CF080E090E0C5
S11309D0A0E0B0E48093960490939704A0939804C5
S11309E0B093990408C01092960410929704109240
S11309F0980410929904C0909604D0909704E090C3
S1130A009804F090990420E030E0A901C701B601F0
S1130A1093D018161CF4C701B60103C0C701B60170
S1130A20905835D0CB01F9D63ED72AC0813019F47D
S1130A306CE172E002C063E372E082EA94E0EAD21D
S1130A4080919A048130E1F410929A041092DD02AC
S1130A501092DC0210927F0410927E0410928004A3
S1130A60109281041092820410928304F894CBD6DD
S1130A7027D7789461E085E01AD461E08CE017D43C
S1130A80DF91CF91FF90EF90DF90CF90BCC433D033
S1130A9088F09F5790F0B92F9927B751A0F0D1F063
S1130AA0660F771F881F991F1AF0BA95C9F712C0ED
S1130AB0B13081F03AD0B1E0089537C0672F782F74
S1130AC08827B85F39F0B93FCCF386957795679559
S1130AD0B395D9F73EF490958095709561957F4FC5
S1130AE08F4F9F4F089557FD9058440F551F59F04D
S1130AF05F3F71F04795880F97FB991F61F09F3F07
S1130B0079F087950895121613061406551FF2CF2F
S1130B104695F1DF08C0161617061806991FF1CF7F
S1130B2086957105610508940895E894BB276627A6
S1130B307727CB0197F9089503D008F48FEF089530
S1130B40990F0008550FAA0BE0E8FEEF16161706DA
S1130B50E807F907C0F012161306E407F50798F042
S1130B60621B730B840B950B39F40A2661F0232B5B
S1130B70242B252B21F408950A2609F4A140A695D7
S1130B808FEF811D811D0895FC01918D228D892F88
S1130B9090E0805C9F4F821B91098F739927089581
S1130BA0FC01918D828D981731F0828DE80FF11D33
S1130BB0858D90E008958FEF9FEF0895FC01918D4E
S1130BC0828D981761F0828DDF01A80FB11D5D96AB
S1130BD08C91928D9F5F9F73928F90E008958FEF19
S1130BE09FEF0895FC01538D448D252F30E0842F11
S1130BF090E0821B930B541710F0CF960895019741
S1130C00089587E897E0892B39F080E090E0892BFC
S1130C1019F07DD1811125C080E090E0892B41F04D
S1130C2080E090E0892B21F00E94000081111CC01B
S1130C3080E090E0892B41F080E090E0892B21F066
S1130C400E940000811113C080E090E0892BA1F084
S1130C5080E090E0892B81F00E94000081110AC09D
S1130C6008950E940000D8CF0E940000E1CF0E94A6
S1130C700000EACF0C9400000895FC01848DDF018C
S1130C80A80FB11DA35ABF4F2C91848D90E00196FB
S1130C908F739927848FA689B7892C93A089B189EA
S1130CA08C9180648C93938D848D981306C00288F4
S1130CB0F389E02D80818F7D80830895EF92FF92E8
S1130CC00F931F93CF93DF93EC0181E0888F9B8D6B
S1130CD08C8D981305C0E889F989808185FD23C02E
S1130CE0F62E0B8D10E00F5F1F4F0F731127E02EB0
S1130CF08C8DE8120BC00FB607FCFACFE889F9898E
S1130D00808185FFF5CFCE01B8DFF2CF8B8DFE0158
S1130D10E80FF11DE35AFF4FF0820B8FEA89FB893C
S1130D208081806207C0EE89FF896083E889F98940
S1130D3080818064808381E090E0DF91CF911F9176
S1130D400F91FF90EF900895CF93DF93EC01888D7E
S1130D508823C1F0EA89FB89808185FD05C0A889C3
S1130D60B9898C9186FD0EC00FB607FCF5CF808142
S1130D7085FFF2CFA889B9898C9185FFEDCFCE018B
S1130D807CDFE8CFDF91CF910895CF92DF92EF928D
S1130D90FF921F93CF93DF93EC016A017B01122F23
S1130DA0E889F98982E080834115514E6105710516
S1130DB0A9F060E079E08DE390E0A7019601F4D713
S1130DC0DA01C9010197A109B109B695A7959795CB
S1130DD087959C01211580E13807A0F0E889F989FD
S1130DE0108260E874E88EE190E0A7019601DCD7F8
S1130DF0DA01C9010197A109B109B695A79597959B
S1130E0087959C01EC85FD853083EE85FF852083E5
S1130E10188EEC89FD891083EA89FB8980818061C1
S1130E208083EA89FB89808188608083EA89FB89E1
S1130E30808180688083EA89FB8980818F7D8083BB
S1130E40DF91CF911F91FF90EF90DF90CF900895A5
S1130E501F920F920FB60F9211240BB60F922F937D
S1130E608F939F93EF93FF93E091B204F091B304B7
S1130E708081E091B804F091B90482FD12C09081A0
S1130E808091BB048F5F8F732091BC04821751F053
S1130E90E091BB04F0E0EE55FB4F958F8093BB04CB
S1130EA001C08081FF91EF919F918F912F910F90BD
S1130EB00BBE0F900FBE0F901F9018951F920F92AC
S1130EC00FB60F9211240BB60F922F933F934F93AB
S1130ED05F936F937F938F939F93AF93BF93EF939E
S1130EE0FF9382EA94E0C9DEFF91EF91BF91AF9145
S1130EF09F918F917F916F915F914F913F912F912E
S1130F000F900BBE0F900FBE0F901F90189582EAA2
S1130F1094E03ADE21E0892B09F420E0822F089541
S1130F20E2EAF4E01382128288EE93E0A0E0B0E0FB
S1130F3084839583A683B78385E492E09183808339
S1130F4085EC90E09587848784EC90E0978786878A
S1130F5080EC90E0918B808B81EC90E0938B828B82
S1130F6082EC90E0958B848B86EC90E0978B868B5B
S1130F70118E128E138E148E08950895A5D0FDDF60
S1130F8049DCC1E0D6E08ADC2097E9F33ADEFBCF06
S1130F90CF92DF92EF92FF920F931F93CF93DF9341
S1130FA06C017A018B01C0E0D0E0CE15DF0581F041
S1130FB0D8016D918D01D601ED91FC910190F081E4
S1130FC0E02DC6011995892B11F02196EECF7E01F3
S1130FD0C701DF91CF911F910F91FF90EF90DF90A8
S1130FE0CF9008956115710579F0FB0101900020FF
S1130FF0E9F73197AF01461B570BDC01ED91FC91EA
S11310000280F381E02D199480E090E0089563E577
S113101072E0E8CF0F931F93CF93DF93EC01E2DFED
S11310208C01CE01F4DF800F911FDF91CF911F91CE
S11310300F9108951F920F920FB60F9211242F93C0
S11310403F938F939F93AF93BF938091400590916B
S11310504105A0914205B091430530913F0523E03D
S1131060230F2D3720F40196A11DB11D05C026E8DC
S1131070230F0296A11DB11D20933F0580934005C7
S113108090934105A0934205B09343058091440594
S113109090914505A0914605B09147050196A11D83
S11310A0B11D8093440590934505A0934605B093E4
S11310B04705BF91AF919F918F913F912F910F90D1
S11310C00FBE0F901F901895789484B5826084BDEC
S11310D084B5816084BD85B5826085BD85B5816038
S11310E085BDEEE6F0E0808181608083E1E8F0E098
S11310F01082808182608083808181608083E0E8C7
S1131100F0E0808181608083E1EBF0E080818460A5
S11311108083E0EBF0E0808181608083E1E9F0E0AE
S1131120808182608083808181608083E0E9F0E057
S1131130808181608083E1EAF0E080818260808345
S1131140808181608083E0EAF0E080818160808337
S1131150E1E2F1E08081826080838081816080832C
S1131160E0E2F1E0808181608083EAE7F0E0808161
S113117084608083808182608083808181608083B9
S11311808081806880831092C100089590E0FC0102
S11311903197E231F10508F04DC08827EE58FF4F32
S11311A08F4F24C6809180008F7703C08091800088
S11311B08F7D80938000089580918000877FF9CF90
S11311C084B58F7702C084B58F7D84BD08958091E6
S11311D0B0008F7703C08091B0008F7D8093B00002
S11311E00895809190008F7707C0809190008F7D43
S11311F003C080919000877F809390000895809130
S1131200A0008F7707C08091A0008F7D03C08091DC
S1131210A000877F8093A0000895809120018F779C
S113122007C0809120018F7D03C080912001877FBA
S1131230809320010895CF93DF9390E0FC01E25B5B
S1131240FE4F2491FC01EC56FE4F8491882361F1FA
S113125090E0880F991FFC01EC50FE4FC591D4918A
S1131260FC01E652FE4FA591B491611109C09FB7EC
S1131270F8948881209582238883EC912E230BC0D7
S1131280623061F49FB7F8948881322F30958323BC
S11312908883EC912E2B2C939FBF06C08FB7F894B4
S11312A0E8812E2B28838FBFDF91CF9108951F9360
S11312B0CF93DF93282F30E0F901E85FFE4F84914C
S11312C0F901E25BFE4FD491F901EC56FE4FC49153
S11312D0CC23B9F0162F811159DFEC2FF0E0EE0F7B
S11312E0FF1FE652FE4FA591B4919FB7F8941111D8
S11312F004C08C91D095D82302C0EC91DE2BDC93F2
S11313009FBFDF91CF911F91089561E086E193DF44
S113131061E088E190DF61E082E08DDF61E083E0FD
S11313208ADF61E084E087DF61E085E084DF61E0FB
S11313308AE181DF61E086E07EDF61E087E07BDFD8
S113134061E089E078DF61E08AE075DF61E08BE0ED
S113135072DF61E08CE06FDF61E088E06CCF8230A7
S1131360A9F028F4882341F0813059F0089583309E
S1131370A9F08430A9F0089560E082E098DF60E08D
S113138009C060E082E093DF60E00EC060E082E0CC
S11313908EDF61E083E08BDF60E009C060E001C0C4
S11313A061E082E084DF61E083E081DF61E084E08A
S11313B07ECF8230A9F028F4882341F0813059F09F
S11313C008958330A9F08430A9F0089560E089E09D
S11313D06EDF60E009C060E089E069DF60E00EC0B4
S11313E060E089E064DF61E08AE061DF60E009C019
S11313F060E001C061E089E05ADF61E08AE057DF24
S113140061E08BE054CF80919E0490919F04A09161
S1131410A004B091A104811529E19207A105B105A9
S113142024F081E080939B0408C08130974EAF4F35
S1131430BF4F2CF481E080939C0461E005C01092BE
S11314409C0410929B0460E089E131CF20917204E6
S113145080919E0490919F04A091A004B091A10456
S113146021110BC0813027EE92072FEFA207B2079C
S1131470B4F00197A109B10909C0811529E19207C6
S1131480A105B10564F40196A11DB11D80939E04CC
S113149090939F04A093A004B093A104129A08957A
S11314A02091DC023091DD02AEE6B4E0F901E252B3
S11314B0FD4F818190E0982F88274081842B1996D5
S11314C09C938E931897838190E0982F882742816C
S11314D0842B17969C938E931697A4E8B4E0858189
S11314E090E0982F88274481842B19969C938E939F
S11314F01897878190E0982F88274681842B179628
S11315009C938E931697285F3F4F3093DD02209370
S1131510DC0208950F931F93CF93DF93EC0188852A
S11315209985811520E8920739F462E672E082EA2F
S113153094E070DD80E07DC09C012F5F3F4F23303D
S1131540310548F41A8A1B8A1C8A1D8A1B861A864E
S11315501F861E866DC00E811F8140E050E060E052
S113156070E44A8B5B8B6C8B7D8B8230910554F1DC
S113157021E02C830297880F991F880F991F9B875E
S11315808A879F878E879C01220F331F02171307B8
S113159070F5B80180E090E03CD320E030E040E01A
S11315A05FE39CD374DA7B876A87061B170B1F875C
S11315B00E8780E090E02DD320E030E040E85EE349
S11315C08DD333C01C8297FF03C0919581959109F7
S11315D00297880F991F880F991F9B878A879F8777
S11315E08E879C01220F331F0217130728F0081B54
S11315F0190B1D870C871CC0B80180E090E009D34B
S113160020E030E040E05FE369D341DA7B876A871A
S1131610061B170B1F870E8780E090E0FAD220E0AC
S113162030E040E85EE35AD39058ECD2798768877B
S113163081E0DF91CF911F910F91089582EA94E0A8
S1131640BDDA90919A049D7F09F082C020914B05E8
S113165030914C052115310549F4833599F581E024
S113166090E090934C0580934B050895213031050B
S113167061F5833639F482E090E090934C058093D1
S11316804B050FC010924C0510924B05843779F42A
S113169080919D04882341F0A9D005D110929D0426
S11316A081E080939A0408956BE872E056C010922A
S11316B04A05109249051092480510929A0482EA4C
S11316C094E042DB6DE772E048C020914905309117
S11316D04A05F901E252FD4F8083A901477055275D
S11316E04130510531F4803821F482E0809348057B
S11316F01DC0809148058823C9F08F5F80934805F9
S11317008830A1F410924A051092490510924805B8
S113171010924C0510924B0510929A0481E080932C
S11317206E048093840461EA72E017C02F5F3F4F18
S1131730203981E0380728F430934A05209349057D
S113174008958FE891E090934A05809349050895A0
S113175082EA94E0F9DA69EB72E082EA94E05ACC26
S1131760823D22E0920710F081ED92E0FC01EE0F41
S1131770FF1F0F9798F480918100887F80938100E8
S1131780F894E25FFD4F8591949190938700809344
S11317908600789480918100826012C080918100DB
S11317A0887F80938100F894E25FFD4F8591949146
S11317B09093870080938600789480918100816063
S11317C0809381000895109280001092810080E03F
S11317D090E0A0E0B0E48093800490938104A0930F
S11317E08204B093830482E090E0BACF1092850023
S11317F010928400E1E8F0E080818061808381E0E0
S113180080936F0008951092850010928400EFE693
S1131810F0E080818E7F80830895823D22E09207EC
S113182010F081ED92E0FC01EE0FFF1F0F9798F48A
S113183080919100887F80939100F894E25FFD4F3E
S113184085919491909397008093960078948091D9
S11318509100826012C080919100887F80939100F2
S1131860F894E25FFD4F8591949190939700809353
S113187096007894809191008160809391000895FE
S1131880109290001092910080E090E0A0E0B0E40B
S11318908093960490939704A0939804B09399042A
S11318A082E090E0BACF1092950010929400E1E9A2
S11318B0F0E080818061808381E0809371000895ED
S11318C01092950010929400E1E7F0E080818E7F01
S11318D0808308951F920F920FB60F9211240BB6B6
S11318E00F922F933F934F935F936F937F938F93B5
S11318F09F93AF93BF93EF93FF932F9880917E04B0
S113190090917F04019690937F0480937E0480914C
S113191076049091770497FF03C09195819591097E
S11319200297CCF193DD80917E0490917F04209105
S11319307804309179042817390770F020E030E0FA
S113194040E85EE360918004709181048091820498
S113195090918304F1D014C020917A0430917B04D7
S113196082179307D8F020E030E040E85EE360910E
S11319708004709181048091820490918304DBD06F
S11319806093800470938104809382049093830411
S11319907ED8CB0102C080E090E0E2DE20917E049C
S11319A030917F048091740490917504281739074D
S11319B081F429DF10927F0410927E041092800437
S11319C010928104109282041092830481E0809327
S11319D06E041298FF91EF91BF91AF919F918F91F7
S11319E07F916F915F914F913F912F910F900BBE1B
S11319F00F900FBE0F901F9018951F920F920FB665
S1131A000F9211240BB60F922F933F934F935F9332
S1131A106F937F938F939F93AF93BF93EF93FF93B2
S1131A202F98809194049091950401969093950435
S1131A308093940480918C0490918D0497FF03C04B
S1131A4091958195910902970CF43FC08091020110
S1131A508061809302018091940490919504209177
S1131A608E0430918F042817390770F020E030E09D
S1131A7040E85EE360919604709197048091980425
S1131A809091990459D014C02091900430919104FC
S1131A9082179307E8F020E030E040E85EE36091CD
S1131AA0960470919704809198049091990443D07E
S1131AB06093960470939704809398049093990488
S1131AC00E944705CB01A9DE03C080E090E048DE18
S1131AD0209194043091950480918A0490918B0410
S1131AE02817390781F4ECDE1092950410929404BF
S1131AF010929604109297041092980410929904EC
S1131B0081E080938404809102018F7E809302019E
S1131B10FF91EF91BF91AF919F918F917F916F91C1
S1131B205F914F913F912F910F900BBE0F900FBE7D
S1131B300F901F9018955058BB27AA270ED0BDC0F0
S1131B40AED030F0B3D020F031F49F3F11F41EF446
S1131B50A3C00EF4E095E7FB99C0E92F0E9473053A
S1131B6078F3BA17620773078407950720F079F4AE
S1131B70A6F50C9495050EF4E0950B2EBA2FA02D26
S1131B800B01B90190010C01CA01A0011124FF2726
S1131B90591B99F0593F50F4503E68F11A16F04021
S1131BA0A22F232F342F4427585FF3CF4695379520
S1131BB02795A795F0405395C9F77EF41F16BA0BE5
S1131BC0620B730B840BBAF09150A1F0FF0FBB1F93
S1131BD0661F771F881FC2F70EC0BA0F621F731FDC
S1131BE0841F48F4879577956795B795F7959E3F39
S1131BF008F0B1CF9395880F08F09927EE0F9795C9
S1131C00879508950E9447056894B1110C94960530
S1131C100895E89409C097FB3EF4909580957095DB
S1131C2061957F4F8F4F9F4F9923A9F0F92F96E924
S1131C30BB279395F695879577956795B795F11199
S1131C40F8CFFAF4BB0F11F460FF1BC06F5F7F4F36
S1131C508F4F9F4F16C0882311F096E911C0772348
S1131C6021F09EE8872F762F05C0662371F096E851
S1131C70862F70E060E02AF09A95660F771F881F20
S1131C80DAF7880F9695879597F9089597F99F67DE
S1131C9080E870E060E008959FEF80EC08950024F0
S1131CA00A941616170618060906089500240A94BD
S1131CB012161306140605060895092E0394000C43
S1131CC011F4882352F0BB0F40F4BF2B11F460FFD2
S1131CD004C06F5F7F4F8F4F9F4F08950CD0EDCF9F
S1131CE0DEDF28F0E3DF18F0952309F0CFCFD4CF5F
S1131CF011240C9496050E94730590F3959FC1F3EB
S1131D00950F50E0551F629FF001729FBB27F00DA5
S1131D10B11D639FAA27F00DB11DAA1F649F6627FA
S1131D20B00DA11D661F829F2227B00DA11D621F49
S1131D30739FB00DA11D621F839FA00D611D221F03
S1131D40749F3327A00D611D231F849F600D211DE7
S1131D50822F762F6A2F11249F57504092F0E9F07A
S1131D6088234AF0EE0FFF1FBB1F661F771F881FD3
S1131D7091505040A9F79E3F510578F087CF0C94BD
S1131D8096055F3FE4F3983ED4F38695779567957F
S1131D90B795F795E7959F5FC1F7FE2B880F911DC7
S1131DA09695879597F90895A1E21A2EAA1BBB1B55
S1131DB0FD010DC0AA1FBB1FEE1FFF1FA217B30713
S1131DC0E407F50720F0A21BB30BE40BF50B661F29
S1131DD0771F881F991F1A9469F7609570958095ED
S1131DE090959B01AC01BD01CF010895EE0FFF1F3B
S1131DF0881F8BBF0790F691E02D1994F894FFCFBC
S1131E006E6F76612076656C3A00436F6E74696E0E
S1131E1075617220726F64616E646F007465726DB7
S1131E20696E616E646F206F20636F6E74726F6C85
S1131E30653A00616775617264616E646F20537402
S1131E4000000000005E06C807F205A406C405DE13
S1131E5005D0050D0A006E616E00696E66006F762E
S1131E606600436F6E74726F6C653A2066696D200C
S1131E70646F7320636F6D616E646F730048656196
S1131E806465722065727261646F00436F6D616E88
S1131E90646F73206E616F20656E766961646F7321
S1131EA00066696D206461206D7367206964656EE6
S1131EB0746966696361646F004D73672064657358
S1131EC0636F6E73696465726164612C206D6F74F5
S10F1ED06F7220726F64616E646F00001A
S9030000FC
