S01100006372746C5F676967612E7372656367
S1130000D8C3000006C4000004C4000002C40000F9
S113001000C40000FEC30000FCC30000FAC30000DB
S1130020F8C30000F6C30000F4C30000F2C30000EC
S1130030F0C30000EEC30000ECC30000EAC30000FC
S1130040E8C30000E6C30000E4C30000E2C300000C
S11300500C94EA0DDEC30000DCC300000C94F50828
S1130060D8C3000005C7000039C70000D2C3000090
S1130070D0C30000CEC30000CCC30000CAC300003C
S1130080C8C30000C6C30000C4C300000C94440EDF
S1130090C0C30000BEC30000BCC30000BAC300005C
S11300A0B8C30000B6C30000B4C30000B2C300006C
S11300B0B0C300000C94A60EACC30000AAC3000099
S11300C0A8C30000A6C30000A4C30000A2C300008C
S11300D0A0C300009EC300009CC300009AC300009C
S11300E098C30000C609C909B809BC09C209000AB5
S11300F0CD09D109D709DB09DF09E509E909ED09CA
S1130100000AF309F709FB0900000A0B02090C0DA8
S11301100E080703040100000000000000000000B6
S113012000000000000000000000000000000000CB
S11301300000000012111000000000000000000088
S113014000000000000000000000000000000102A8
S113015010202008081020401020408002010201D5
S1130160080402010102040810204080804020108D
S113017008040201800402018040201008040201E6
S1130180080402010102040810204080010204084E
S11301901020408005050505070508080808020227
S11301A002020A0A0808040404040101010101010D
S11301B001010303030303030303040707070C0CF0
S11301C00C0C0C0C0C0C02020202060606060606B7
S11301D006060B0B0B0B0B0B0B0B00002200250070
S11301E028002B002E00310034000201000005011C
S11301F008010B0100002100240027002A002D0023
S11302003000330001010000040107010A01E80382
S1130210E803BADB7C92DD6DE4573E49C73EEF3616
S1130220D430F22BF3279F24CE21641F4C1DBADB5C
S1130230CDCE50C308B9C8AF69A7CD9FDA987C92D8
S1130240A08C378735828F7D3A7930756871DD6D82
S1130250896A67677264A861045F845C255AE457FD
S1130260BF55B553C251E74F204E6D4CCD4A3E4960
S1130270BF475046EF449C4355421B41EC3FC73EA9
S1130280AD3D9D3C963B983AA239B438CE37EF3613
S1130290163644357934B333F33239328431D430B9
S11302A02930822FE02E422EA82D122D802CF22BE5
S11302B0672BE02A5B2ADA295C29E1286928F327DD
S11302C080271027A2263726CD25662502259F24C0
S11302D03E24E02383232823CF2278222222CE2106
S11302E07B212B21DB208D204120F61FAC1F641FB6
S11302F01D1FD71E921E4F1E0C1ECB1D8B1D4C1D89
S11303000E1DD11C951C5A1C201CE71BAF1B771B10
S1130310411B0B1BD61AA21A6F1A3C1A0B1ADA19B4
S1130320A9197A194B191D19EF18C21896186A18C9
S11303303F181418EA17C117981770174817211790
S1130340FA16D416AE168916641640161C16F9153C
S1130350D615B415911570154F152E150D15ED14F0
S1130360CD14AE148F147114521434141714FA13D8
S1130370DD13C013A41388136C13511336131B130A
S11303800113E712CD12B3129A128112681250129D
S113039037121F120712F011D911C111AB119411A8
S11303A07E11671151113C1126111111FC10E71037
S11303B0D210BE10A910951081106E105A1047105B
S11303C0331020100E10FB0FE80FD60FC40FB20F1E
S11303D0A00F8E0F7D0F6B0F5A0F490F380F270F89
S11303E0170F060FF60EE60ED50EC60EB60EA60EA7
S11303F0960E870E780E690E590E4B0E3C0E2D0E7E
S11304001E0E100E020EF30DE50DD70DC90DBC0D19
S1130410AE0DA00D930D860D780D6B0D5E0D510D77
S1130420440D370D2B0D1E0D120D050DF90CED0CA1
S1130430E10CD50CC90CBD0CB10CA50C9A0C8E0C9E
S1130440830C770C6C0C610C560C4B0C400C350C6B
S11304502A0C1F0C150C0A0C000CF50BEB0BE10B12
S1130460D60BCC0BC20BB80BAE0BA40B9A0B910B97
S1130470870B7D0B740B6A0B610B570B4E0B450BF3
S11304803B0B320B290B200B170B0E0B050BFD0A34
S1130490F40AEB0AE20ADA0AD10AC90AC00AB80A5B
S11304A0B00AA70A9F0A970A8F0A870A7F0A770A5F
S11304B06F0A670A5F0A570A4F0A480A400A380A4D
S11304C0310A290A220A1A0A130A0B0A040AFD0924
S11304D0F609EE09E709E009D909D209CB09C409EB
S11304E0BD09B609AF09A909A2099B0994098E0996
S11304F0870980097A0973096D09660960095A092F
S113050053094D09470940093A0934092E092809B4
S113051022091C09160910090A090409FE08F80829
S1130520F208EC08E608E108DB08D508D008CA0898
S1130530C408BF08B908B408AE08A908A3089E08EF
S1130540980893088E08880883087E087908730839
S11305506E08690864085F085A08550850084B0873
S1130560460841083C08370832082D0828082308A3
S11305701F081A08150810080B0807080208FD07C9
S1130580F907F407F007EB07E607E207DD07D907E9
S1130590D407D007CC07C707C307BE07BA07B607F7
S11305A0B107AD07A907A507A0079C0798079407FB
S11305B08F078B07870783077F077B0777077307F7
S11305C06F076B07670763075F075B0757075307E7
S11305D04F074B074707440740073C0738073407D2
S11305E030072D072907250722071E071A071707B3
S11305F013070F070C07080704070107FD06FA068F
S1130600F606F306EF06EC06E806E506E106DE0666
S1130610DA06D706D406D006CD06C906C606C30632
S1130620BF06BC06B906B606B206AF06AC06A906F6
S1130630A506A2069F069C069906950692068F06B5
S11306408C0689068606830680067D06790676066C
S1130650730670066D066A066706640661065E0622
S11306605B0659065606530650064D064A064706CB
S1130670440641063F063C06390636063306310673
S11306802E062B0628062506230620061D061B0615
S113069018061506120610060D060A0608060506B3
S11306A002060006FD05FB05F805F505F305F00552
S11306B0EE05EB05E905E605E405E105DF05DC05E6
S11306C0DA05D705D505D205D005CD05CB05C80576
S11306D0C605C305C105BF05BC05BA05B705B50503
S11306E0B305B005AE05AC05A905A705A505A2058A
S11306F0A0059E059B05990597059505920590050E
S11307008E058C05890587058505830580057E058D
S11307107C057A0578057605730571056F056D0509
S11307206B05690566056405620560055E055C0583
S11307305A05580556055405520550054D054B05F7
S1130740490547054505430541053F053D053B056D
S1130750390537053505330531052F052D052C05DC
S11307602A05280526052405220520051E051C0545
S11307701A05180516051505130511050F050D05B0
S11307800B05090508050605040502050005FE0418
S1130790FD04FB04F904F704F504F404F204F00482
S11307A0EE04ED04EB04E904E704E504E404E204E4
S11307B0A00711241FBECFEFD1E2DEBFCDBF00E002
S11307C00CBF13E0A0E0B2E0E4E4F3E200E00BBF0E
S11307D002C007900D92A036B107D9F725E0A0E634
S11307E0B3E001C01D92A13DB207E1F713E0C9EDEA
S11307F0D3E000E006C021970109802FFE010E948A
S11308009811C83DD10780E00807A9F7C7D30C9415
S1130810A011F6CB26E040E051EE60E070E086E205
S113082095E0C1D258D661E08DE0EBD561E089E175
S1130830E8D561E087E1E5D560E08DE01ED660E0B3
S113084089E11BD60E94280D0E94960D0E94C50DB9
S113085084E095D660E087E010D661E08CE00DD6A8
S113086061E088E00AD661E086E007D684E05DD6E0
S113087060E088E102D661E085E0FFD561E08AE1CD
S1130880FCD561E086E1F9D581E08093F60410920D
S1130890220510922305109224051092250510922A
S11308A01E050895CF92DF92EF92FF92CF93DF93CC
S11308B086E295E077D1892B09F0F7D78091F2048D
S11308C0882309F4EBC080910805882309F4E6C065
S11308D0CDD61092F2041092080560E072E086E230
S11308E095E0AFD36091FA047091FB044AE050E0C4
S11308F086E295E06AD482EF94E0F2D6D82F88E0BD
S113090095E0EED6C82F81E08093210560E085E074
S1130910B4D560E08CE0B1D56091F60486E1ADD544
S113092060910C0586E0A9D580911E05D13009F0AF
S113093086C0C13009F083C0813009F080C06AE00C
S113094072E086E295E07DD38091FA049091FB04F5
S113095097FF03C09195819591090A976CF080E007
S113096090E0A0E2B1E48093040590930505A09380
S11309700605B093070508C01092040510920505FA
S11309801092060510920705C0900405D090050545
S1130990E0900605F090070520E030E0A901C701CA
S11309A0B601D8D018161CF4C701B60103C0C7019C
S11309B0B60190587AD0CB010E94E90C0E943B0DFD
S11309C0809110059091110597FF03C09195819531
S11309D091090A976CF080E090E0A0E2B1E4809382
S11309E01A0590931B05A0931C05B0931D0508C020
S11309F010921A0510921B0510921C0510921D05E9
S1130A00C0901A05D0901B05E0901C05F0901D05C0
S1130A1020E030E0A901C701B6019CD018161CF4EF
S1130A20C701B60103C0C701B60190583ED0CB013F
S1130A300E94570D0E94A90D0E94D30D2FC0813032
S1130A4019F46CE172E002C063E372E086E295E0BF
S1130A50F8D280911E05813009F510921E0510927E
S1130A606103109260031092030510920205109224
S1130A700405109205051092060510920705F894D6
S1130A800E944D0D0E94BB0D0E94E00D789461E020
S1130A9085E0F3D461E08CE0F0D41198DF91CF913C
S1130AA0FF90EF90DF90CF9094C533D088F09F579C
S1130AB090F0B92F9927B751A0F0D1F0660F771FA6
S1130AC0881F991F1AF0BA95C9F712C0B13081F086
S1130AD03AD0B1E0089537C0672F782F8827B85FE0
S1130AE039F0B93FCCF3869577956795B395D9F7E7
S1130AF03EF490958095709561957F4F8F4F9F4FF1
S1130B00089557FD9058440F551F59F05F3F71F0F9
S1130B104795880F97FB991F61F09F3F79F0879560
S1130B200895121613061406551FF2CF4695F1DFE9
S1130B3008C0161617061806991FF1CF8695710579
S1130B40610508940895E894BB2766277727CB01AD
S1130B5097F9089503D008F48FEF0895990F0008CA
S1130B60550FAA0BE0E8FEEF16161706E807F9077B
S1130B70C0F012161306E407F50798F0621B730B16
S1130B80840B950B39F40A2661F0232B242B252B97
S1130B9021F408950A2609F4A140A6958FEF811D3A
S1130BA0811D0895FC01918D228D892F90E0805C38
S1130BB09F4F821B91098F7399270895FC01918D92
S1130BC0828D981731F0828DE80FF11D858D90E0AC
S1130BD008958FEF9FEF0895FC01918D828D9817F2
S1130BE061F0828DDF01A80FB11D5D968C91928D0D
S1130BF09F5F9F73928F90E008958FEF9FEF08950A
S1130C00FC01538D448D252F30E0842F90E0821B0E
S1130C10930B541710F0CF9608950197089587E920
S1130C2097E0892B39F080E090E0892B19F07FD18F
S1130C30811125C080E090E0892B41F080E090E0B4
S1130C40892B21F00E94000081111CC080E090E0FB
S1130C50892B41F080E090E0892B21F00E94000074
S1130C60811113C080E090E0892BA1F080E090E036
S1130C70892B81F00E94000081110AC008950E940E
S1130C800000D8CF0E940000E1CF0E940000EACF0C
S1130C900C9400000895FC01848DDF01A80FB11DA0
S1130CA0A35ABF4F2C91848D90E001968F7399279E
S1130CB0848FA689B7892C93A089B1898C9180648B
S1130CC08C93938D848D981306C00288F389E02D4C
S1130CD080818F7D80830895EF92FF920F931F93FD
S1130CE0CF93DF93EC0181E0888F9B8D8C8D9813DB
S1130CF005C0E889F989808185FD23C0F62E0B8D16
S1130D0010E00F5F1F4F0F731127E02E8C8DE81238
S1130D100BC00FB607FCFACFE889F989808185FFFB
S1130D20F5CFCE01B8DFF2CF8B8DFE01E80FF11DB8
S1130D30E35AFF4FF0820B8FEA89FB89808180623E
S1130D4007C0EE89FF896083E889F989808180641E
S1130D50808381E090E0DF91CF911F910F91FF900C
S1130D60EF900895CF93DF93EC01888D8823C1F031
S1130D70EA89FB89808185FD05C0A889B9898C91A0
S1130D8086FD0EC00FB607FCF5CF808185FFF2CF3C
S1130D90A889B9898C9185FFEDCFCE017CDFE8CF9E
S1130DA0DF91CF910895CF92DF92EF92FF921F933C
S1130DB0CF93DF93EC016A017B01122FE889F98953
S1130DC082E080834115514E61057105B1F060E008
S1130DD079E08DE390E0A70196010E947611DA0193
S1130DE0C9010197A109B109B695A795979587956A
S1130DF09C01211580E13807A8F0E889F98910825F
S1130E0060E874E88EE190E0A70196010E947611F3
S1130E10DA01C9010197A109B109B695A79597957A
S1130E2087959C01EC85FD853083EE85FF852083C5
S1130E30188EEC89FD891083EA89FB8980818061A1
S1130E408083EA89FB89808188608083EA89FB89C1
S1130E50808180688083EA89FB8980818F7D80839B
S1130E60DF91CF911F91FF90EF90DF90CF90089585
S1130E701F920F920FB60F9211240BB60F922F935D
S1130E808F939F93EF93FF93E0913605F09137058D
S1130E908081E0913C05F0913D0582FD12C0908176
S1130EA080913F058F5F8F7320914005821751F029
S1130EB0E0913F05F0E0EA5DFA4F958F80933F059E
S1130EC001C08081FF91EF919F918F912F910F909D
S1130ED00BBE0F900FBE0F901F9018951F920F928C
S1130EE00FB60F9211240BB60F922F933F934F938B
S1130EF05F936F937F938F939F93AF93BF93EF937E
S1130F00FF9386E295E0C7DEFF91EF91BF91AF9129
S1130F109F918F917F916F915F914F913F912F910D
S1130F200F900BBE0F900FBE0F901F90189586E286
S1130F3095E038DE21E0892B09F420E0822F089522
S1130F40E6E2F5E01382128288EE93E0A0E0B0E0DE
S1130F5084839583A683B78385E492E09183808319
S1130F6085EC90E09587848784EC90E0978786876A
S1130F7080EC90E0918B808B81EC90E0938B828B62
S1130F8082EC90E0958B848B86EC90E0978B868B3B
S1130F90118E128E138E148E089508957BD1FDDF69
S1130FA039DCCFE0D6E07EDC2097E9F338DEFBCFF6
S1130FB0CF92DF92EF92FF920F931F93CF93DF9321
S1130FC06C017A018B01C0E0D0E0CE15DF0581F021
S1130FD0D8016D918D01D601ED91FC910190F081C4
S1130FE0E02DC6011995892B11F02196EECF7E01D3
S1130FF0C701DF91CF911F910F91FF90EF90DF9088
S1131000CF9008956115710579F0FB0101900020DE
S1131010E9F73197AF01461B570BDC01ED91FC91C9
S11310200280F381E02D199480E090E00895DC01C2
S1131030ED91FC910190F081E02D199463E572E04B
S1131040E1CF0F931F93CF93DF93EC01DBDF8C0190
S1131050CE01F4DF800F911FDF91CF911F910F918B
S113106008958F929F92AF92BF92EF92FF920F9347
S11310701F93CF93DF93CDB7DEB7A1970FB6F89444
S1131080DEBF0FBECDBF7C01FA01CB0119A2223015
S113109008F42AE08E010F5D1F4F822E912CA12CA3
S11310A0B12CBF01A50194010E947611F901CA0176
S11310B0015011096A3010F4605D01C0695CD80107
S11310C06C93232B242B252B61F7B801C7019ADFDE
S11310D0A1960FB6F894DEBF0FBECDBFDF91CF91BE
S11310E01F910F91FF90EF90BF90AF909F908F90C2
S11310F008952115310541F4DC01ED91FC91019035
S1131100F081E02D642F1994ACCF9A01AB0160E01B
S113111070E0EFCF0F931F93CF93DF93EC01F5DFD4
S11311208C01CE018BDF800F911FDF91CF911F9136
S11311300F910895CF92DF92EF92FF920F931F9336
S1131140CF93DF932115310581F4DC01ED91FC91FE
S11311500190F081E02D642FDF91CF911F910F91C9
S1131160FF90EF90DF90CF9019942A303105F1F47D
S113117077FF1BC06A017B01EC016DE258DF8C0133
S113118044275527BA014C195D096E097F092AE0E5
S1131190CE0167DF800F911FDF91CF911F910F91D7
S11311A0FF90EF90DF90CF9008952AE0DF91CF91E8
S11311B01F910F91FF90EF90DF90CF9052CF9A0143
S11311C0AB01770F660B770BB5CF0F931F93CF93BC
S11311D0DF93EC01F4DF8C01CE0130DF800F911F2F
S11311E0DF91CF911F910F9108951F920F920FB627
S11311F00F9211242F933F938F939F93AF93BF9399
S11312008091C4059091C505A091C605B091C7050C
S11312103091C30523E0230F2D3720F40196A11D3F
S1131220B11D05C026E8230F0296A11DB11D209310
S1131230C3058093C4059093C505A093C605B093D8
S1131240C7058091C8059091C905A091CA05B091C0
S1131250CB050196A11DB11D8093C8059093C905C6
S1131260A093CA05B093CB05BF91AF919F918F9185
S11312703F912F910F900FBE0F901F9018958230C1
S1131280910538F0880F991F880F991F05970197CA
S1131290F1F70895789484B5826084BD84B5816043
S11312A084BD85B5826085BD85B5816085BDEEE66A
S11312B0F0E0808181608083E1E8F0E01082808149
S11312C082608083808181608083E0E8F0E08081B7
S11312D081608083E1EBF0E0808184608083E0EBD7
S11312E0F0E0808181608083E1E9F0E080818260C8
S11312F08083808181608083E0E9F0E08081816087
S11313008083E1EAF0E08081826080838081816073
S11313108083E0EAF0E0808181608083E1E2F1E0B3
S1131320808182608083808181608083E0E2F1E05B
S1131330808181608083EAE7F0E08081846080833B
S113134080818260808380818160808380818068E5
S113135080831092C100089590E0FC013197E2313E
S1131360F10508F04DC08827EE58FF4F8F4FE0C7B6
S1131370809180008F7703C0809180008F7D80935F
S11313808000089580918000877FF9CF84B58F779E
S113139002C084B58F7D84BD08958091B0008F779D
S11313A003C08091B0008F7D8093B0000895809138
S11313B090008F7707C0809190008F7D03C080914B
S11313C09000877F8093900008958091A0008F778C
S11313D007C08091A0008F7D03C08091A000877F0B
S11313E08093A0000895809120018F7707C0809199
S11313F020018F7D03C080912001877F809320018D
S11314000895CF93DF9390E0FC01E25BFE4F2491BB
S1131410FC01EC56FE4F8491882361F190E0880F23
S1131420991FFC01EC50FE4FC591D491FC01E6528A
S1131430FE4FA591B491611109C09FB7F8948881BA
S1131440209582238883EC912E230BC0623061F4B3
S11314509FB7F8948881322F309583238883EC9149
S11314602E2B2C939FBF06C08FB7F894E8812E2BA8
S113147028838FBFDF91CF9108951F93CF93DF937C
S1131480282F30E0F901E85FFE4F8491F901E25B17
S1131490FE4FD491F901EC56FE4FC491CC23B9F020
S11314A0162F811159DFEC2FF0E0EE0FFF1FE652EB
S11314B0FE4FA591B4919FB7F894111104C08C917B
S11314C0D095D82302C0EC91DE2BDC939FBFDF9133
S11314D0CF911F91089561E086E193DF61E088E197
S11314E090DF61E082E08DDF61E083E08ADF61E02C
S11314F084E087DF61E085E084DF61E08AE181DF09
S113150061E086E07EDF61E087E07BDF61E089E027
S113151078DF61E08AE075DF61E08BE072DF61E033
S11315208CE06FDF61E088E06CCF8230A9F028F4B2
S1131530882341F0813059F008958330A9F0843034
S1131540A9F0089560E082E098DF60E009C060E0FF
S113155082E093DF60E00EC060E082E08EDF61E055
S113156083E08BDF60E009C060E001C061E082E0FD
S113157084DF61E083E081DF61E084E07ECF82305C
S1131580A9F028F4882341F0813059F0089583307C
S1131590A9F08430A9F0089560E089E06EDF60E08E
S11315A009C060E089E069DF60E00EC060E089E0C6
S11315B064DF61E08AE061DF60E009C060E001C0EF
S11315C061E089E05ADF61E08AE057DF61E08BE0A7
S11315D054CF8091220590912305A0912405B091C8
S11315E02505811529E19207A105B10524F081E0C3
S11315F080931F0508C08130974EAF4FBF4F2CF426
S113160081E08093200561E005C0109220051092CE
S11316101F0560E089E131CF2091F6048091220515
S113162090912305A0912405B091250521110BC0AB
S1131630813027EE92072FEFA207B207B4F001978B
S1131640A109B10909C0811529E19207A105B105D4
S113165064F40196A11DB11D809322059093230586
S1131660A0932405B0932505129A08952091600350
S113167030916103A2EFB4E0F901EE59FC4F81818E
S113168090E0982F88274081842B19969C938E9301
S11316901897838190E0982F88274281842B17968E
S11316A09C938E931697A8E0B5E0858190E0982FDF
S11316B088274481842B19969C938E93189787814D
S11316C090E0982F88274681842B17969C938E93BD
S11316D01697285F3F4F309361032093600308956A
S11316E0CF92DF92EF92FF920F931F93CF93DF93EA
S11316F0EC0108851985011580E8180739F462E6BC
S113170072E086E295E09DDC80E0C6C0C8010996DF
S1131710439748F41A8A1B8A1C8A1D8A1B861A86D8
S11317201F861E86ACC0B80117FF04C06627772742
S1131730601B710B072E000C880B990B0ED56B01E7
S11317407C010A3011050CF448C06DE772E086E2B2
S113175095E077DC80E090E0A0E2B1E48A8B9B8B9B
S1131760AC8BBD8B81E08C83A7019601C701B601C8
S113177057D520E030E048EC52E416D420E030E0C5
S113178042E253E47DD491D97B876A877F876E8751
S11317904E815F819B01220F331F4217530708F0CC
S11317A046C069EA72E086E295E04BDC0E811F8157
S11317B0B80180E090E0CFD420E030E040E05FE387
S11317C02FD573D97B876A877D876C87061B170B98
S11317D01F870E878AE090E050C06BEC72E086E2CF
S11317E095E02FDC80E090E0A0E2B1E48A8B9B8B53
S11317F0AC8BBD8B1C82A7019601C701B60110D525
S113180020E030E048EC52E4CFD320E030E042E284
S113181053E436D44AD97B876A877F876E874E81A3
S11318205F819B01220F331F4217530758F0CA01EF
S1131830861B970B9D878C8767E872E086E295E0AC
S113184000DC1DC069EA72E086E295E0FADB0E81F5
S11318501F81B80180E090E07ED420E030E040E0D9
S11318605FE3DED422D97B876A877D876C87061B7A
S1131870170B1F870E8786EF9FEF9987888765ED83
S113188072E086E295E0DDDB6A857B854AE050E024
S113189086E295E03FDC81E0DF91CF911F910F91CB
S11318A0FF90EF90DF90CF90089586E295E094D971
S11318B090911E059D7F09F084C02091CF05309141
S11318C0D0052115310549F48335A9F581E090E06F
S11318D09093D0058093CF0508952130310571F59B
S11318E0833639F482E090E09093D0058093CF055D
S11318F011C01092D0051092CF05843789F48091DD
S11319002105882351F0B7D024D14DD1119A1092DA
S1131910210581E080931E05089560E173E056C0BF
S11319201092CE051092CD051092CC0510921E0592
S113193086E295E017DA62E073E048C02091CD05B5
S11319403091CE05F901EE59FC4F8083A90147700F
S113195055274130510531F4803821F482E08093D9
S1131960CC051DC08091CC058823C9F08F5F80937E
S1131970CC058830A1F41092CE051092CD051092BA
S1131980CC051092D0051092CF0510921E0581E06F
S11319908093F2048093080566E273E017C02F5F1A
S11319A03F4F203981E0380728F43093CE05209347
S11319B0CD0508958FE891E09093CE058093CD05F1
S11319C0089586E295E0CED96EE373E086E295E071
S11319D038CB823D22E0920710F081ED92E08A300C
S11319E0910548F480918100887F80938100F89468
S11319F0EEE0F2E00DC0FC01EE0FFF1F0F9798F42C
S1131A0080918100887F80938100F894E25FFD4F8C
S1131A108591949190938900809388007894809123
S1131A208100826012C080918100887F8093810050
S1131A30F894E25FFD4F859194919093890080938F
S1131A40880078948091810081608093810008955A
S1131A50109280001092810080E090E0A0E2B1E456
S1131A608093040590930505A0930605B09307059C
S1131A708AE090E0AECF1092850010928400E0E8F6
S1131A80F0E0808181608083E1E8F0E08081806122
S1131A90808381E080936F000895109285001092F6
S1131AA08400EFE6F0E080818E7F80830895823D9C
S1131AB022E0920710F081ED92E08A30910548F41B
S1131AC080919100887F80939100F894EEE0F2E099
S1131AD00DC0FC01EE0FFF1F0F9798F48091910049
S1131AE0887F80939100F894E25FFD4F85919491F3
S1131AF090939900809398007894809191008260EB
S1131B0012C080919100887F80939100F894E25FE5
S1131B10FD4F8591949190939900809398007894C7
S1131B2080919100816080939100089510929000BB
S1131B301092910080E090E0A0E2B1E480931A0555
S1131B4090931B05A0931C05B0931D058AE090E0BB
S1131B50AECF1092950010929400E0E9F0E08081FD
S1131B6081608083E1E9F0E080818061808381E0AD
S1131B708093710008951092950010929400E1E70B
S1131B80F0E080818E7F808308951092A000E1EAC6
S1131B90F0E010828FE69BE29093A7008093A6006A
S1131BA081E0808308951092A5001092A400E1EAD8
S1131BB0F0E080818061808381E0809372000895E9
S1131BC01092A5001092A400E2E7F0E080818E7FDD
S1131BD0808308951F920F920FB60F9211240BB6B3
S1131BE00F922F933F934F935F936F937F938F93B2
S1131BF09F93AF93BF93EF93FF93809102059091CE
S1131C000305019690930305809302058091FA04DD
S1131C109091FB0497FF03C09195819591090A97D0
S1131C200CF0FADC20910205309103058091F80450
S1131C309091F9042817390781F42FDF10920305D6
S1131C4010920205109204051092050510920605E3
S1131C501092070581E08093F20482E090E00FDBAC
S1131C601298FF91EF91BF91AF919F918F917F91C6
S1131C706F915F914F913F912F910F900BBE0F90F9
S1131C800FBE0F901F9018951F920F920FB60F92D0
S1131C9011240BB60F922F933F934F935F936F933F
S1131CA07F938F939F93AF93BF93EF93FF93809111
S1131CB018059091190501969093190580931805BC
S1131CC0809110059091110597FF03C0919581951E
S1131CD091090A972CF0809102018061809302019E
S1131CE0209118053091190580910E0590910F05EA
S1131CF02817390781F43FDF10921905109218054F
S1131D0010921A0510921B0510921C0510921D05C5
S1131D1081E08093080582E090E0B1DA80910201CD
S1131D208F7E80930201FF91EF91BF91AF919F91BC
S1131D308F917F916F915F914F913F912F910F9070
S1131D400BBE0F900FBE0F901F9018951F920F920D
S1131D500FB60F9211240BB60F92CF92DF92EF922F
S1131D60FF922F933F934F935F936F937F938F9340
S1131D709F93AF93BF93EF93FF938091FA04909155
S1131D80FB0497FF03C09195819591098A309105D1
S1131D900CF46FC020910205309103054091FC04BE
S1131DA05091FD0442175307F8F0C0900405D090F9
S1131DB00505E0900605F090070520E030E040E2DC
S1131DC051E4C701B60157D187FF06C0C12CD12CFD
S1131DD050E2E52E51E4F52E20E030E040E85FE3E8
S1131DE0C701B601E2D026C04091FE045091FF0421
S1131DF02417350708F43FC0C0900405D0900505AA
S1131E00E0900605F090070520E030E040E251E460
S1131E10C701B60130D187FF06C0C12CD12C40E2E6
S1131E20E42E41E4F42E20E030E040E85FE3C70113
S1131E30B601BAD06B017C0120E030E444E354E401
S1131E400E94AA0518163CF4C12C30E4D32E34E3C6
S1131E50E32E34E4F32EC0920405D0920505E092FB
S1131E600605F0920705C701B6010E945505CB018E
S1131E7002C080E090E0ADDD8091100590911105E5
S1131E8097FF03C09195819591098A3091050CF4CF
S1131E9071C0209118053091190540911205509197
S1131EA013054217530700F12F9AC0901A05D090DA
S1131EB01B05E0901C05F0901D0520E030E040E299
S1131EC051E4C701B601D7D087FF06C0C12CD12C7D
S1131ED020E2E22E21E4F22E20E030E040E85FE34D
S1131EE0C701B60162D027C0409114055091150571
S1131EF02417350708F440C02F98C0901A05D090D5
S1131F001B05E0901C05F0901D0520E030E040E248
S1131F1051E4C701B601AFD087FF06C0C12CD12C54
S1131F2090E2E92E91E4F92E20E030E040E85FE30E
S1131F30C701B60139D06B017C0120E030E444E3F1
S1131F4054E40E94AA0518163CF4C12C80E4D82E4F
S1131F5084E3E82E84E4F82EC0921A05D0921B057F
S1131F60E0921C05F0921D05C701B6010E945505BB
S1131F70CB0102C080E090E09ADDFF91EF91BF9128
S1131F80AF919F918F917F916F915F914F913F910D
S1131F902F91FF90EF90DF90CF900F900BBE0F909A
S1131FA00FBE0F901F9018955058BB27AA270ED02C
S1131FB026C117D130F01CD120F031F49F3F11F429
S1131FC01EF40CC10EF4E095E7FB02C1E92F0E9458
S1131FD0810578F3BA17620773078407950720F021
S1131FE079F4A6F50C94A3050EF4E0950B2EBA2F04
S1131FF0A02D0B01B90190010C01CA01A00111240B
S1132000FF27591B99F0593F50F4503E68F11A16B6
S1132010F040A22F232F342F4427585FF3CF469547
S113202037952795A795F0405395C9F77EF41F1669
S1132030BA0B620B730B840BBAF09150A1F0FF0F33
S1132040BB1F661F771F881FC2F70EC0BA0F621F1F
S1132050731F841F48F4879577956795B795F7950F
S11320609E3F08F0B1CF9395880F08F09927EE0FA3
S11320709795879508950E94AE0508F481E0089528
S11320800DD0BDC0B5D048F0ACD038F021F45F3FDE
S113209021F09EC051110C94A405A0C00E9481059A
S11320A088F39923B9F35523A1F3951B550BBB274B
S11320B0AA2762177307840738F09F5F5F4F220FC8
S11320C0331F441FAA1FA9F334D00E2E3AF0E0E8C0
S11320D031D091505040E695001CCAF72AD0FE2F0B
S11320E028D0660F771F881FBB1F2617370748079E
S11320F0AB07B0E809F0BB0B802DBF01FF27935855
S11321005F4F32F09E3F510570F062C00C94A405FD
S11321105F3FE4F3983ED4F3869577956795B7953A
S1132120F7959F5FC9F7880F911D9695879597F945
S11321300895E1E0660F771F881FBB1F62177307BE
S11321408407BA0720F0621B730B840BBA0BEE1FD3
S113215088F7E0950895E89409C097FB3EF49095BC
S11321608095709561957F4F8F4F9F4F9923A9F06C
S1132170F92F96E9BB279395F695879577956795FB
S1132180B795F111F8CFFAF4BB0F11F460FF1BC03F
S11321906F5F7F4F8F4F9F4F16C0882311F096E9D2
S11321A011C0772321F09EE8872F762F05C0662380
S11321B071F096E8862F70E060E02AF09A95660F39
S11321C0771F881FDAF7880F9695879597F90895F2
S11321D097F99F6780E870E060E008959FEF80ECD6
S11321E0089500240A941616170618060906089579
S11321F000240A9412161306140605060895092EDF
S11322000394000C11F4882352F0BB0F40F4BF2B4D
S113221011F460FF04C06F5F7F4F8F4F9F4F08958D
S11322200CD0EDCFDEDF28F0E3DF18F0952309F0C2
S1132230CFCFD4CF11240C94A4050E94810590F330
S1132240959FC1F3950F50E0551F629FF001729F57
S1132250BB27F00DB11D639FAA27F00DB11DAA1F66
S1132260649F6627B00DA11D661F829F2227B00DB3
S1132270A11D621F739FB00DA11D621F839FA00D3E
S1132280611D221F749F3327A00D611D231F849F8E
S1132290600D211D822F762F6A2F11249F575040E5
S11322A092F0E9F088234AF0EE0FFF1FBB1F661F70
S11322B0771F881F91505040A9F79E3F510578F031
S11322C087CF0C94A4055F3FE4F3983ED4F386953E
S11322D077956795B795F795E7959F5FC1F7FE2BBF
S11322E0880F911D9695879597F90895A1E21A2E66
S11322F0AA1BBB1BFD010DC0AA1FBB1FEE1FFF1FA6
S1132300A217B307E407F50720F0A21BB30BE40BF5
S1132310F50B661F771F881F991F1A9469F760953C
S11323207095809590959B01AC01BD01CF010895F6
S1132330EE0FFF1F881F8BBF0790F691E02D1994B5
S1072340F894FFCF3B
S11323446E6F76612076656C3A00436F6E74696EC5
S113235475617220726F64616E646F007465726D6E
S1132364696E616E646F206F20636F6E74726F6C3C
S1132374653A00616775617264616E646F205374B9
S113238400000000006C06D8070006B206D205EC73
S113239405DE050D0A006E616E00696E66006F76D7
S11323A46600436F6E74726F6C653A2066696D20C3
S11323B4646F7320636F6D616E646F730056656C34
S11323C42E20506F732E0056656C6F6369646164CC
S11323D465206465206372757A6569726F2073651C
S11323E46D20636F727465730056656C6F63696402
S11323F4616465206465206372757A6569726F200F
S1132404636F6D20636F727465730056656C2E2060
S11324144E65672E004E756D65726F20646520737A
S11324247465707320706172612076656C6F636982
S113243464616465206465206372757A6569726F8A
S11324443A004865616465722065727261646F0064
S1132454436F6D616E646F73206E616F20656E7679
S11324646961646F730066696D206461206D7367CC
S1132474206964656E746966696361646F004D7391
S11324846720646573636F6E736964657261646104
S11324942C206D6F746F7220726F64616E646F00B0
S9030000FC
